:020000040800F2
:10000000A8060020ED010008D50400088D040008B2
:10001000D1040008A7020008E10600080000000063
:10002000000000000000000000000000250500089E
:10003000AB02000800000000D704000871060008A9
:10004000070200080702000807020008070200086C
:10005000070200080702000807020008070200085C
:10006000070200080702000807020008070200084C
:10007000070200080702000807020008070200083C
:10008000070200080702000807020008070200082C
:10009000070200080702000807020008070200081C
:1000A000070200080702000807020008070200080C
:1000B00007020008070200080702000807020008FC
:1000C00007020008070200080702000807020008EC
:1000D00007020008070200080702000807020008DC
:1000E00007020008070200080702000800000000DD
:1000F0000000000000000000000000000000000000
:1001000000000000000000000702000807020008CD
:10011000070200080702000807020008070200089B
:10012000070200080702000807020008070200088B
:10013000070200080702000807020008070200087B
:10014000070200080702000807020008070200086B
:1001500000F002F800F03AF80AA090E8000C82449F
:100160008344AAF10107DA4501D100F02FF8AFF27C
:10017000090EBAE80F0013F0010F18BFFB1A43F085
:1001800001031847580A0000780A0000103A24BFFB
:1001900078C878C1FAD8520724BF30C830C144BFEC
:1001A00004680C607047000000230024002500262E
:1001B000103A28BF78C1FBD8520728BF30C148BFCA
:1001C0000B6070471FB51FBD10B510BD00F031F8B2
:1001D0001146FFF7F7FF00F07FFB00F04FF803B484
:1001E000FFF7F2FF03BC00F057F800000948804712
:1001F00009480047FEE7FEE7FEE7FEE7FEE7FEE709
:10020000FEE7FEE7FEE7FEE704480549054A064B20
:10021000704700007506000851010008A800002082
:10022000A8060020A8020020A802002070477047FE
:100230007047754600F02CF8AE46050069465346F7
:1002400020F00700854618B020B5FFF7DDFFBDE8B8
:1002500020404FF000064FF000074FF000084FF02D
:10026000000B21F00701AC46ACE8C009ACE8C009BE
:10027000ACE8C009ACE8C0098D46704710B504462B
:10028000AFF300802046BDE81040FFF7A8BF000094
:10029000004870474400002001491820ABBEFEE72B
:1002A00026000200704700BFFEE7704708B5012135
:1002B0003C2000F021F9FF20ADF8000069462348FA
:1002C00000F04CF8FF21214800F0DEF84FF44340E5
:1002D000ADF8000003208DF8020010208DF8030017
:1002E00069461B4800F03AF84FF44341184800F0C3
:1002F000CBF803208DF802004FF46070ADF80000D9
:1003000010208DF803006946124800F027F84CF2DF
:100310000700ADF8000004208DF8030069460D4881
:1003200000F01CF84FF460710A4800F0ADF8FF20AF
:10033000ADF8000003208DF8020004208DF80300C2
:100340006946054800F00AF808BD000000080140B1
:10035000000C014000100140001401402DE9F04163
:10036000024600250026002000230024002791F8E3
:1003700003C00CF00F0591F803C00CF0100CBCF199
:10038000000F03D091F802C04CEA050591F800C0B7
:10039000BCF1000F31D0146800202BE04FF0010CAD
:1003A0000CFA00F3B1F800C00CEA03069E4220D11B
:1003B00083004FF00F0C0CFA03F7BC4305FA03FC63
:1003C0004CEA040491F803C0BCF1280F06D14FF0A9
:1003D000010C0CFA00FCC2F814C00AE091F803C04A
:1003E000BCF1480F05D14FF0010C0CFA00FCC2F82B
:1003F00010C0401C0828D1D31460B1F800C0BCF173
:10040000FF0F34DD546800202EE000F1080C4FF09F
:10041000010808FA0CF3B1F800C00CEA03069E428A
:1004200021D183004FF00F0C0CFA03F7BC4305FAFF
:1004300003FC4CEA040491F803C0BCF1280F05D179
:1004400000F1080C08FA0CF8C2F8148091F803C007
:10045000BCF1480F07D100F1080C4FF0010808FA71
:100460000CF8C2F81080401C0828CED35460BDE8B8
:10047000F0810246002093680B400BB1012000E0A0
:1004800000207047416170470161704700BFFEE77F
:1004900010B500200D490860382000F023F9142021
:1004A00000F0CEF90F2000F01DF9142000F0C8F97B
:1004B000062000F017F9142000F0C2F9012000F026
:1004C00011F9142000F0BCF910BD00009C0122427B
:1004D00000BFFEE77047704729B1064AD269024360
:1004E000044BDA6104E0034AD2698243014BDA61CA
:1004F000704700000010024029B1064A9269024389
:10050000044B9A6104E0034A92698243014B9A6169
:10051000704700000010024010B501210846FFF7A7
:10052000DBFF10BD704710B500F002F810BD0000F1
:100530000CB50020019000903F48006840F48030E6
:100540003D49086000BF3C48006800F4003000905E
:100550000198401C0190009818B90198B0F5A06F5F
:10056000F1D13548006800F4003010B1012000904E
:1005700001E000200090009801285CD12F4800681D
:1005800040F010002D4908600846006820F0030084
:1005900008600846006840F002000860264840688D
:1005A000254948600846406848600846406840F46D
:1005B000806048600846C06A214908401E49C862F8
:1005C0000846C06A1F4908431B49C86208460068BC
:1005D00040F08060086000BF1748006800F00060CD
:1005E0000028F9D01448406820F47C101249486073
:1005F0000846406840F4E81048600846006840F04B
:100600008070086000BF0C48006800F0007000288F
:10061000F9D00948406820F00300074948600846BF
:10062000406840F00200486000BF0348406800F0A6
:100630000C000828F9D10CBD001002400020024037
:1006400000F0FEFF44060100042808D14FF0E0212D
:10065000096941F004014FF0E022116107E04FF019
:10066000E021096921F004014FF0E0221161704797
:100670007047000010B51648006840F001001449AA
:100680000860084640681349084011494860084618
:100690000068114908400E4908600846006820F4C7
:1006A000802008600846406820F4FE004860084644
:1006B000006820F0A05008604FF47F0088600020A0
:1006C000C862FFF730FF4FF000600449086010BDBA
:1006D000001002400000FFF0FFFFF6FE08ED00E012
:1006E00000BFFEE770B504461048006800252543AA
:1006F000052000F0CBF80D48056000200C4908608B
:100700000C49C1F89C010A49091D08600A2000F043
:1007100097F801200749C1F8A4010A2000F090F8D9
:1007200000200349091D086070BD00000C0801404D
:10073000A00122420000224270B504461048006821
:1007400000252543052000F0A1F80D480560012093
:100750000C49086000200C49C1F89C010949091D99
:1007600008600A2000F06CF801200749C1F8A401D4
:100770000A2000F065F800200249091D086070BDDC
:100780000C080140A0012242000022422DE9F04164
:10079000054608262AE00124082000EBC500801B3E
:1007A000C7B205E04FF6FF7000EA4404781EC7B2F6
:1007B000002FF7DC21461048FFF75BFE98B10124BB
:1007C000082000EBC500801BC7B205E04FF6FF70A4
:1007D00000EA4404781EC7B2002FF7DC08EB0400DF
:1007E0001FFA80F800E00024701EC6B2002ED2DC92
:1007F0004046BDE8F08100000014014010B56FF0E4
:100800000400FFF721FF0A4800680A49B0FBF1F035
:10081000094908700846007800EB4001C1EBC010A0
:100820004FF6FF7101EAC0000449088010BD0000C6
:100830001800002000127A002C0000202E0000205A
:100840000146114A12884A434FF0E0235A610022C0
:100850009A611A46126942F001021A6100BF4FF014
:10086000E022106900F001021AB100F48032002A7F
:10087000F5D04FF0E022126922F001024FF0E023A0
:100880001A6100229A6170472E0000200146114A29
:1008900012784A434FF0E0235A6100229A611A46C7
:1008A000126942F001021A6100BF4FF0E0221069A4
:1008B00000F001021AB100F48032002AF5D04FF0A6
:1008C000E022126922F001024FF0E0231A610022B7
:1008D0009A6170472C000020FFF790FFFFF7E6FCBD
:1008E000FFF7D6FDFFF718FE9120FFF7FBFEC820AB
:1008F000FFF7A6FF00F032F8002408E01549085D74
:10090000FFF71AFFC820FFF79BFF601CC4B20A2C38
:10091000F4D3D120FFF7E6FEC820FFF791FF0024B3
:1009200008E00D49085DFFF707FFC820FFF788FFC3
:10093000601CC4B20A2CF4D3002407E01820FFF78F
:10094000D1FEC820FFF77CFF601CC4B2102CF5DB81
:1009500000BFFEE7300000203A0000202DE9F04FF4
:1009600085B0002500264FF001084FF001094FF037
:10097000010A01200490039002900190009040E051
:1009800001219048FFF775FD834602218D48FFF74E
:1009900070FD0BEB4000C7B237B1012F0FD0022F13
:1009A00018D0032F2BD120E0B8F1000F06D0384625
:1009B000FFF7ECFE284485B24FF0000820E0B9F1C3
:1009C000000F06D03846FFF7E1FE284485B24FF00D
:1009D000000915E0BAF1000F06D03846FFF7D6FE41
:1009E000284485B24FF0000A0AE0049830B1384636
:1009F000FFF7CCFE284485B20020049000E000BF41
:100A000000BFB8F1000FBBD1B9F1000FB8D1BAF1F6
:100A1000000FB5D104980028B2D14FF480716A4814
:100A2000FFF730FD44E001216648FFF722FD8346D1
:100A300002216448FFF71DFD0BEB400B04216148C8
:100A4000FFF717FD0BEB8000C7B2042F06D0052F70
:100A50000ED0062F16D0072F28D11DE0039830B1F5
:100A60003846FFF793FE304486B2002003901EE024
:100A7000029830B13846FFF789FE304486B2002034
:100A8000029014E0019830B13846FFF77FFE304401
:100A900086B2002001900AE0009830B13846FFF796
:100AA00075FE304486B20020009000E000BF00BF19
:100AB00003980028B7D102980028B4D101980028E3
:100AC000B1D100980028AED14FF400713E48FFF735
:100AD000D9FCECB211E00A2094FBF0F100FB1140CC
:100AE00030303A490968087038480068401E374974
:100AF00008600A2094FBF0F0C4B2002CEBDC334811
:100B00000068401C31490860314800783149096863
:100B100008700FE02D48006800782E4909680870B9
:100B20002C480068401C2B49086028480068401C7D
:100B3000264908602748016825480A308142E9D1E2
:100B40000020244909680870F4B211E00A2094FBDF
:100B5000F0F100FB114030301C49096808701B4857
:100B60000068401E194908600A2094FBF0F0C4B2E6
:100B7000002CEBDC15480068401C1449086016483E
:100B800000781449096808700FE010480068007880
:100B90001049096808700F480068401C0D4908603A
:100BA0000A480068401C094908600A4801680A4868
:100BB0000A308142E9D1002006490968087005B071
:100BC000BDE8F08F00100140000C0140080000203B
:100BD000300000200C0000203A000020FC0B000830
:100BE00000000020300000008C0100082C0C0008E0
:100BF0003000002078060000A801000835322E33AE
:100C0000250000003A0000203000002044000020B1
:100C10003A00002000A24A0400000000000000008A
:0C0C2000010203040607080900000000A0
:04000005080001519D
:00000001FF
