:020000040800F2
:10000000B0060020ED010008BF0600084106000808
:1000100085060008A702000851090008000000003A
:10002000000000000000000000000000950700082C
:10003000AB0200080000000045070008E1080008C6
:10004000070200080702000807020008070200086C
:10005000070200080702000807020008AD020008B6
:10006000D50200080702000807020008070200087E
:10007000070200080702000807020008070200083C
:10008000070200080702000807020008070200082C
:10009000070200080702000807020008070200081C
:1000A000070200080702000807020008070200080C
:1000B00007020008070200080702000807020008FC
:1000C00007020008070200080702000807020008EC
:1000D00007020008070200080702000807020008DC
:1000E00007020008070200080702000800000000DD
:1000F0000000000000000000000000000000000000
:1001000000000000000000000702000807020008CD
:10011000070200080702000807020008070200089B
:10012000070200080702000807020008070200088B
:10013000070200080702000807020008070200087B
:10014000070200080702000807020008070200086B
:1001500000F002F800F03AF80AA090E8000C82449F
:100160008344AAF10107DA4501D100F02FF8AFF27C
:10017000090EBAE80F0013F0010F18BFFB1A43F085
:1001800001031847DC0A0000FC0A0000103A24BFF3
:1001900078C878C1FAD8520724BF30C830C144BFEC
:1001A00004680C607047000000230024002500262E
:1001B000103A28BF78C1FBD8520728BF30C148BFCA
:1001C0000B6070471FB51FBD10B510BD00F031F8B2
:1001D0001146FFF7F7FF00F07FFC00F04FF803B483
:1001E000FFF7F2FF03BC00F057F800000948804712
:1001F00009480047FEE7FEE7FEE7FEE7FEE7FEE709
:10020000FEE7FEE7FEE7FEE704480549054A064B20
:1002100070470000E508000851010008B000002008
:10022000B0060020B0020020B002002070477047E6
:100230007047754600F02CF8AE46050069465346F7
:1002400020F00700854618B020B5FFF7DDFFBDE8B8
:1002500020404FF000064FF000074FF000084FF02D
:10026000000B21F00701AC46ACE8C009ACE8C009BE
:10027000ACE8C009ACE8C0098D46704710B504462B
:10028000AFF300802046BDE81040FFF7A8BF000094
:10029000004870474C00002001491820ABBEFEE723
:1002A00026000200704700BFFEE7704710B502202D
:1002B00000F05CF850B14FF48071054800F0BCF9D3
:1002C000022000F01BF8022000F01EF810BD000014
:1002D000000C014010B5042000F048F850B14FF474
:1002E0000071054800F0A8F9042000F007F8042088
:1002F00000F00AF810BD0000000C01400149086040
:100300007047000014040140014908607047000074
:10031000140401401CB50220FFF7F6FF00208DF801
:1003200004000C208DF805000220009001208DF8BB
:100330000600684600F02EF80121084600F0C8F8D3
:100340000420FFF7E1FF00208DF8040008208DF85D
:1003500005000420009001208DF80600684600F09A
:1003600019F80221012000F0B3F81CBD014600205D
:100370000022074B1B6803EA0102054B14331B687C
:100380000B4013B10AB1012000E0002070470000CB
:1003900000040140002123498279002A3AD00A460C
:1003A000126803689A430B461A600A1D12680368B4
:1003B0009A430B1D1A60027911440A6803681A43B4
:1003C0000A60184A0832126803689A43154B0833CA
:1003D0001A601A1D126803689A43124B0C331A6094
:1003E0004279102A0ED11A1F126803681A430D4B66
:1003F00008331A601A1D126803681A43094B0C333C
:100400001A600DE00749427911440A6803681A43EB
:100410000A6005E0027911440A6803689A430A6099
:10042000704700000004014008B50121142000F0CD
:100430009BF94FF46070ADF8000010208DF80300B8
:1004400003208DF8020069461D4800F061F84FF462
:1004500060711B4800F0F2F8FF20ADF8000069461B
:10046000184800F055F8FF21164800F0E7F8012180
:10047000082000F079F94FF44340ADF80000032064
:100480008DF8020010208DF8030069460E4800F038
:100490003FF84FF443410C4800F0D0F801212020F0
:1004A00000F062F9FF20ADF8000003208DF8020093
:1004B00004208DF803006946044800F029F808BDBF
:1004C0000010014000080140000C014000140140F0
:1004D00030B500228B071C0F0F2303FA04F20B4BDD
:1004E0008C1053F824309343084C8D1044F8253079
:1004F00023468C1053F824308C07240F00FA04F4A0
:100500002343024C8D1044F8253030BD08000140D3
:100510002DE9F0410246002500260020002300249A
:10052000002791F803C00CF00F0591F803C00CF000
:10053000100CBCF1000F03D091F802C04CEA050585
:1005400091F800C0BCF1000F31D0146800202BE0FE
:100550004FF0010C0CFA00F3B1F800C00CEA0306EE
:100560009E4220D183004FF00F0C0CFA03F7BC43DE
:1005700005FA03FC4CEA040491F803C0BCF1280F0F
:1005800006D14FF0010C0CFA00FCC2F814C00AE0CE
:1005900091F803C0BCF1480F05D14FF0010C0CFAE3
:1005A00000FCC2F810C0401C0828D1D31460B1F878
:1005B00000C0BCF1FF0F34DD546800202EE000F1D4
:1005C000080C4FF0010808FA0CF3B1F800C00CEA6F
:1005D00003069E4221D183004FF00F0C0CFA03F763
:1005E000BC4305FA03FC4CEA040491F803C0BCF1D7
:1005F000280F05D100F1080C08FA0CF8C2F8148095
:1006000091F803C0BCF1480F07D100F1080C4FF07E
:10061000010808FA0CF8C2F81080401C0828CED354
:100620005460BDE8F0810246002093680B400BB196
:10063000012000E000207047416170470161704770
:1006400000BFFEE710B500200D490860382000F01B
:1006500081F9142000F0F4F90F2000F07BF9142048
:1006600000F0EEF9062000F075F9142000F0E8F92A
:10067000012000F06FF9142000F0E2F910BD000035
:100680009C01224200BFFEE708B54FF4E06000F095
:100690004FF801208DF8030007208DF8000001209D
:1006A0008DF80200684600F00BF808208DF8000075
:1006B00002208DF80200684600F002F808BD70477D
:1006C00070B5002100230F22C47804B3154C2468B0
:1006D00004F4E064C4F5E064210AC1F10403CA40F3
:1006E000447804FA03F184781440214309010E4C44
:1006F0000678A155047804F01F050124AC40057864
:100700006D11AD0005F1E025C5F8004109E0047860
:1007100004F01F050124AC40044D0678761145F81D
:10072000264070BD0CED00E000E400E080E100E058
:1007300002490143024A1160704700000000FA05B7
:100740000CED00E07047000029B1064AD26902436F
:10075000044BDA6104E0034AD2698243014BDA6157
:10076000704700000010024029B1064A9269024316
:10077000044B9A6104E0034A92698243014B9A61F7
:10078000704700000010024010B501210846FFF735
:10079000DBFF10BD704710B500F002F810BD00007F
:1007A0000CB50020019000903F48006840F4803074
:1007B0003D49086000BF3C48006800F400300090EC
:1007C0000198401C0190009818B90198B0F5A06FED
:1007D000F1D13548006800F4003010B101200090DC
:1007E00001E000200090009801285CD12F480068AB
:1007F00040F010002D4908600846006820F0030012
:1008000008600846006840F002000860264840681A
:10081000254948600846406848600846406840F4FA
:10082000806048600846C06A214908401E49C86285
:100830000846C06A1F4908431B49C8620846006849
:1008400040F08060086000BF1748006800F000605A
:100850000028F9D01448406820F47C101249486000
:100860000846406840F4E81048600846006840F0D8
:100870008070086000BF0C48006800F0007000281D
:10088000F9D00948406820F003000749486008464D
:10089000406840F00200486000BF0348406800F034
:1008A0000C000828F9D10CBD0010024000200240C5
:1008B00000F0FEFF44060100042808D14FF0E021BB
:1008C000096941F004014FF0E022116107E04FF0A7
:1008D000E021096921F004014FF0E0221161704725
:1008E0007047000010B51648006840F00100144938
:1008F00008600846406813490840114948600846A6
:100900000068114908400E4908600846006820F454
:10091000802008600846406820F4FE0048600846D1
:10092000006820F0A05008604FF47F00886000202D
:10093000C862FFF730FF4FF000600449086010BD47
:10094000001002400000FFF0FFFFF6FE08ED00E09F
:1009500000BFFEE770B50446104800680025254337
:10096000052000F093F80D48056000200C49086050
:100970000C49C1F89C010A49091D08600A2000F0D1
:100980005FF801200749C1F8A4010A2000F058F8D7
:1009900000200349091D086070BD00000C080140DB
:1009A000A00122420000224270B5044610480068AF
:1009B00000252543052000F069F80D480560012059
:1009C0000C49086000200C49C1F89C010949091D27
:1009D00008600A2000F034F801200749C1F8A4019A
:1009E0000A2000F02DF800200249091D086070BDA2
:1009F0000C080140A00122420000224210B56FF015
:100A00000400FFF759FF0A4800680A49B0FBF1F0FB
:100A1000094908700846007800EB4001C1EBC0109E
:100A20004FF6FF7101EAC0000449088010BD0000C4
:100A30002000002000127A00340000203600002040
:100A40000146114A12884A434FF0E0235A610022BE
:100A50009A611A46126942F001021A6100BF4FF012
:100A6000E022106900F001021AB100F48032002A7D
:100A7000F5D04FF0E022126922F001024FF0E0239E
:100A80001A6100229A617047360000200146114A1F
:100A900012784A434FF0E0235A6100229A611A46C5
:100AA000126942F001021A6100BF4FF0E0221069A2
:100AB00000F001021AB100F48032002AF5D04FF0A4
:100AC000E022126922F001024FF0E0231A610022B5
:100AD0009A61704734000020FFF790FFFFF7A4FCF5
:100AE000FFF7B0FDFFF750FEFFF7CEFDFFF712FC5A
:100AF0009120FFF72FFFC820FFF7A2FF00F032F888
:100B0000002408E01549085DFFF74EFFC820FFF7F5
:100B100097FF601CC4B20A2CF4D3D120FFF71AFF50
:100B2000C820FFF78DFF002408E00D49085DFFF79E
:100B30003BFFC820FFF784FF601CC4B2062CF4D32F
:100B4000002407E01820FFF705FFC820FFF778FF13
:100B5000601CC4B2102CF5DB00BFFEE7380000209B
:100B60000500002070B5002037490860082422E005
:100B700021463648FFF757FDC0B1012034490870BF
:100B8000C4F10800C5B207E0314800784006000E05
:100B90002F490870681EC5B2002DF5DC2A48006890
:100BA0002B49097808442849086002E000202849B8
:100BB0000870601EC4B2002CDADC23480078244997
:100BC000087016E0224800780A2190FBF1F201FB40
:100BD000120030301F49096808701E480068401E26
:100BE0001C4908601A4800780A2190FBF1F0184966
:100BF0000870174800780028E4DC16480068401C9C
:100C000014490860144800781449096808700FE016
:100C10001048006800781149096808700F4800689A
:100C2000401C0E4908600B480068401C09490860D8
:100C30000A48016808480A308142E9D10020074982
:100C40000968087070BD00001C00002000140140FD
:100C50000B0000200C0000203800002010000020B5
:100C6000800C000800000020380000008C01000803
:100C7000B80C00083800002078060000A801000821
:100C80003135487A0035322E3325000042000020ED
:100C9000380000204C00002042000020000000002E
:100CA00000A24A040000000000000000010203044A
:080CB00006070809000000001E
:04000005080001519D
:00000001FF
