:020000040800F2
:1000000070070020ED010008C90400088104000801
:10001000C50400089D020008CF0A00080000000087
:10002000000000000000000000000000F1060008D1
:10003000A1020008000000003D0500083D0800087E
:10004000070200080702000807020008070200086C
:10005000070200080702000807020008070200085C
:10006000070200080702000807020008070200084C
:10007000070200080702000807020008070200083C
:10008000070200080702000807020008070200082C
:10009000070200080702000807020008070200081C
:1000A000070200080702000807020008070200080C
:1000B00007020008070200080702000807020008FC
:1000C00007020008070200080702000807020008EC
:1000D00007020008AD080008070200080702000830
:1000E00007020008070200080702000800000000DD
:1000F0000000000000000000000000000000000000
:1001000000000000000000000702000807020008CD
:10011000070200080702000807020008070200089B
:10012000070200080702000807020008070200088B
:10013000070200080702000807020008070200087B
:10014000070200080702000807020008070200086B
:1001500000F002F800F03AF80AA090E8000C82449F
:100160008344AAF10107DA4501D100F02FF8AFF27C
:10017000090EBAE80F0013F0010F18BFFB1A43F085
:10018000010318475C0C00007C0C0000103A24BFEF
:1001900078C878C1FAD8520724BF30C830C144BFEC
:1001A00004680C607047000000230024002500262E
:1001B000103A28BF78C1FBD8520728BF30C148BFCA
:1001C0000B6070471FB51FBD10B510BD00F033F8B0
:1001D0001146FFF7F7FF00F043FD00F051F803B4BC
:1001E000FFF7F2FF03BC00F0C9FC0000094880479C
:1001F00009480047FEE7FEE7FEE7FEE7FEE7FEE709
:10020000FEE7FEE7FEE7FEE704480549054A064B20
:1002100070470000410800085101000870010020EB
:1002200070070020700300207003002070477047A3
:10023000704770477047754600F02CF8AE460500D1
:100240006946534620F00700854618B020B5FFF7F1
:10025000DBFFBDE820404FF000064FF000074FF0F5
:1002600000084FF0000B21F00701AC46ACE8C009D4
:10027000ACE8C009ACE8C009ACE8C0098D467047DD
:1002800010B50446AFF300802046BDE81040FFF7EC
:10029000A6BF0000004870471001002000BFFEE725
:1002A0007047000008B501213C2000F049F9FF200B
:1002B000ADF800006946234800F04CF8FF212148C2
:1002C00000F0DCF84FF44340ADF8000003208DF857
:1002D000020010208DF8030069461B4800F03AF830
:1002E0004FF44341184800F0C9F803208DF802008C
:1002F0004FF46070ADF8000010208DF803006946DF
:10030000124800F027F84CF20700ADF80000042076
:100310008DF8030069460D4800F01CF84FF4607139
:100320000A4800F0ABF8FF20ADF8000003208DF87C
:10033000020004208DF803006946054800F00AF821
:1003400008BD000000080140000C01400010014001
:10035000001401402DE9F04102460025002600204E
:1003600000230024002791F803C00CF00F0591F83A
:1003700003C00CF0100CBCF1000F03D091F802C0C8
:100380004CEA050591F800C0BCF1000F31D01468AB
:1003900000202BE04FF0010C0CFA00F3B1F800C084
:1003A0000CEA03069E4220D183004FF00F0C0CFA9A
:1003B00003F7BC4305FA03FC4CEA040491F803C0BC
:1003C000BCF1280F06D14FF0010C0CFA00FCC2F86A
:1003D00014C00AE091F803C0BCF1480F05D14FF0FA
:1003E000010C0CFA00FCC2F810C0401C0828D1D344
:1003F0001460B1F800C0BCF1FF0F34DD5468002078
:100400002EE000F1080C4FF0010808FA0CF3B1F8E7
:1004100000C00CEA03069E4221D183004FF00F0C6E
:100420000CFA03F7BC4305FA03FC4CEA040491F808
:1004300003C0BCF1280F05D100F1080C08FA0CF834
:10044000C2F8148091F803C0BCF1480F07D100F145
:10045000080C4FF0010808FA0CF8C2F81080401C94
:100460000828CED35460BDE8F0810246002093688E
:100470000B400BB1012000E0002070470161704784
:1004800000BFFEE710B500200D490860382000F0DD
:1004900021FB142000F098FB0F2000F01BFB142020
:1004A00000F092FB062000F015FB142000F08CFBFE
:1004B000012000F00FFB142000F086FB10BD0000AF
:1004C0009C01224200BFFEE77047000070B500218A
:1004D00000230F22C47804B3154C246804F4E064AC
:1004E000C4F5E064210AC1F10403CA40447804FA67
:1004F00003F184781440214309010E4C0678A1557C
:10050000047804F01F050124AC4005786D11AD009E
:1005100005F1E025C5F8004109E0047804F01F0565
:100520000124AC40044D0678761145F8264070BD94
:100530000CED00E000E400E080E100E07047000026
:1005400029B1064A92690243044B9A6104E0034AC6
:1005500092698243014B9A6170470000001002408B
:100560002DE9F0410021002200250023002600246F
:1005700000278C46DFF86081D8F8048008F00C0171
:1005800021B1042907D0082959D109E0DFF84C81AD
:10059000C0F8008058E0DFF84881C0F8008053E0E0
:1005A000DFF83481D8F8048008F47012DFF828816D
:1005B000D8F8048008F48035920C0D2A01D0921CE2
:1005C00000E0062235B9DFF81C8102FB08F8C0F80C
:1005D000008033E0DFF80081D8F82C8008F4803602
:1005E000DFF8F480D8F82C8008F00F0808F1010437
:1005F00046B9DFF8EC80B8FBF4F808FB02F8C0F865
:1006000000801BE0DFF8D080D8F82C80C8F30318F6
:1006100008F10107DFF8C080D8F82C80C8F3032860
:1006200008F1020CDFF8B880B8FBF7F808FB0CF80B
:10063000B8FBF4F808FB02F8C0F8008004E0DFF82B
:100640009C80C0F8008000BF00BFDFF88C80D8F825
:10065000048008F0F0010909DFF88C8018F80130F7
:10066000D0F8008028FA03F8C0F80480DFF868802A
:10067000D8F8048008F4E061090ADFF86C8018F803
:100680000130D0F8048028FA03F8C0F80880DFF8B9
:100690004880D8F8048008F46051C90ADFF848801F
:1006A00018F80130D0F8048028FA03F8C0F80C805C
:1006B000DFF82480D8F8048008F44041890BDFF883
:1006C0002C8018F80130D0F80C80B8FBF3F8C0F893
:1006D0001080BDE8F08100000010024000127A0096
:1006E00040787D0100093D003200002042000020DA
:1006F000704710B500F002F810BD00000CB50020E6
:10070000019000903F48006840F480303D49086007
:1007100000BF3C48006800F4003000900198401C85
:100720000190009818B90198B0F5A06FF1D1354843
:10073000006800F4003010B10120009001E00020BA
:100740000090009801285CD12F48006840F010000C
:100750002D4908600846006820F00300086008463C
:10076000006840F00200086026484068254948605B
:100770000846406848600846406840F48060486029
:100780000846C06A214908401E49C8620846C06A36
:100790001F4908431B49C8620846006840F0806052
:1007A000086000BF1748006800F000600028F9D01A
:1007B0001448406820F47C1012494860084640689C
:1007C00040F4E81048600846006840F08070086017
:1007D00000BF0C48006800F000700028F9D00948FC
:1007E000406820F00300074948600846406840F030
:1007F0000200486000BF0348406800F00C00082871
:10080000F9D10CBD001002400020024000F0FEFFB4
:1008100044060100042808D14FF0E021096941F0A5
:1008200004014FF0E022116107E04FF0E021096977
:1008300021F004014FF0E022116170477047000081
:1008400010B51648006840F00100144908600846D9
:10085000406813490840114948600846006811493A
:1008600008400E4908600846006820F480200860AF
:100870000846406820F4FE0048600846006820F002
:10088000A05008604FF47F0088600020C862FFF726
:1008900030FF4FF000600449086010BD00100240B6
:1008A0000000FFF0FFFFF6FE08ED00E010B540F29B
:1008B00025511D4800F04AF810B31B4800F002F91A
:1008C000C4B21A48008800F40040C8B9174800882C
:1008D00000F4804060B10A2C03D000201349088046
:1008E00020E01248008840F400401049088019E0D8
:1008F0000D2C06D10D48008840F480400B4908803B
:1009000010E00A480088C0F30D0009490C5407485C
:100910000088401C0549088008460088C72801DD7A
:100920000020088010BD0000003801403000002089
:100930004800002021B1828942F40052828104E003
:1009400082894DF6FF731A408281704770B5024666
:10095000002400230025002040F66A16B14200D191
:1009600000BFC1F3421501F01F03012606FA03F38D
:10097000012D02D19689334006E0022D02D1168A5C
:10098000334001E0968A33400C12012606FA04F443
:100990001688344013B10CB1012000E0002070BD76
:1009A000F0B50346002400260025002040F66A1713
:1009B000B94200D100BF1846C1F3421401F01F062E
:1009C000012707FA06F5012C01D10C3004E0022CB6
:1009D00001D1103000E014301AB107682F430760CE
:1009E00002E00768AF430760F0BD00002DE9F04763
:1009F00086B005460E460024A24600BFA146002749
:100A0000B08900B100BF2F462C8A4CF6FF7004401D
:100A1000F08804432C82AC894EF6F3100440B08871
:100A200031890843718908430443AC81AC8A4FF68D
:100A3000FF400440B0890443AC8201A8FFF790FD59
:100A40001F48874202D1DDF810A001E0DDF80CA0BC
:100A5000A88900F4004040B10AEBCA0000EB0A107C
:100A600031684900B0FBF1F807E00AEBCA0000EB7F
:100A70000A1031688900B0FBF1F86420B8FBF0F08F
:100A800004012009642101FB1089A88900F40040B9
:100A900040B1322000EBC900B0FBF1F000F00700DC
:100AA000044308E0322000EB09106421B0FBF1F0B0
:100AB00000F00F0004432C8106B0BDE8F087000071
:100AC0000038014001468888C0F30800704700BF25
:100AD000FEE7000070B50446104800680025254375
:100AE000052000F097F80D48056000200C490860CB
:100AF0000C49C1F89C010A49091D08600A2000F050
:100B000063F801200749C1F8A4010A2000F05CF84D
:100B100000200349091D086070BD00000C08014059
:100B2000A00122420000224270B50446104800682D
:100B300000252543052000F06DF80D4805600120D3
:100B40000C49086000200C49C1F89C010949091DA5
:100B500008600A2000F038F801200749C1F8A40114
:100B60000A2000F031F800200249091D086070BD1C
:100B70000C080140A001224200002242014600BFB1
:100B80007047000010B56FF00400FFF743FE0A48FD
:100B900000680A49B0FBF1F009490870084600787E
:100BA00000EB4001C1EBC0104FF6FF7101EAC0003D
:100BB0000449088010BD00001400002000127A00D3
:100BC000280000202A0000200146114A12884A43CA
:100BD0004FF0E0235A6100229A611A46126942F0EE
:100BE00001021A6100BF4FF0E022106900F001021B
:100BF0001AB100F48032002AF5D04FF0E0221269D9
:100C000022F001024FF0E0231A6100229A6170473E
:100C10002A0000200146114A12784A434FF0E0238F
:100C20005A6100229A611A46126942F001021A6161
:100C300000BF4FF0E022106900F001021AB100F489
:100C40008032002AF5D04FF0E022126922F0010232
:100C50004FF0E0231A6100229A61704728000020BB
:100C6000FFF790FF4FF4165000F06AF8FFF71AFBF9
:100C7000FFF708FC9120FFF72DFFC820FFF7A4FF26
:100C800000F032F8002408E01549085DFFF74CFF3A
:100C9000C820FFF799FF601CC4B2082CF4D3D12000
:100CA000FFF718FFC820FFF78FFF002408E00D4969
:100CB000085DFFF739FFC820FFF786FF601CC4B24C
:100CC000032CF4D3002407E01820FFF703FFC8200B
:100CD000FFF77AFF601CC4B2102CF5DB00BFFEE703
:100CE000090000200500002010B5002011490870FF
:100CF00015E0104801781048FFF7B7FB28B1312004
:100D00000E490C4A1278885404E030200B49094AF5
:100D10001278885407480078401C06490870054836
:100D200000780828E5DB0021044A02480078401CCE
:100D3000115410BD080000200014014009000020DB
:100D400010B586B00446012144F20500FFF7F8FB18
:100D50004FF40070ADF8140003208DF81600182031
:100D60008DF8170005A91C48FFF7F4FA40F2074078
:100D7000ADF8140004208DF8170005A91648FFF7F8
:100D8000E9FA25208DF8000003208DF801008DF888
:100D9000020001208DF803006846FFF797FB0194DD
:100DA0000020ADF80800ADF80A00ADF80C00ADF871
:100DB00010000C20ADF80E0001A90848FFF716FE40
:100DC000012240F225510548FFF7EAFD01210348C1
:100DD000FFF7B0FD06B010BD00080140003801402B
:100DE000000E000800000020480000008C010008F0
:100DF000480E00084800002028070000A80100084D
:100E00003135487A00352500000000000000000060
:100E10000000000000A24A040000000000000000E2
:100E2000010203040607080900000000000000009A
:100E30000000000000000102030401020304060791
:080E4000080902040608000085
:04000005080001519D
:00000001FF
